:10128000547970652062656C6F773A2D20000025D7
:101290006C6400526573756C743A2D200037003809
:1012A000003900340035003600310032003300547C
:0E12B0007970652062656C6F773A2D00300012
:1013990001440002340000083C0000000000000085
:0113A9000043
:0812ED00C2A6D2A77F017E001A
:1012F500E4FDFCC3ED9FEC9E5015E4FBFA0BBB002F
:0F130500010ABA04F8BBE2F50DBD00010C80E44B
:0113140022B6
:0A13BA008FB0C2A51212EDC2A722E7
:0A13C4008FB0D2A51212EDC2A722CD
:0612BE008B0B8A0C890D68
:1012C400E4F50EF50FF50EF50FAB0BAA0CA90D8581
:1012D4000F82850E83120DE9FF600D1213C4050FF2
:0812E400E50F70E5050E80E145
:0112EC0022DF
:10133C007F021213BA7F011213BA7F381213BA7FCD
:0E134C000C1213BA7F061213BA7F800213BA76
:1010AB007BFF7A12798012135AE5447005120B5CA0
:1010BB0080F77B007A00793C120FFD8E328F3378EC
:1010CB003C7C007D007BFF7A12798E120F2AC37451
:1010DB003C9408740094007B007A005004790180E2
:1010EB00027900121371EF4E600BE5354534700534
:1010FB00120B5C80D97B007A00793C120FFD8E3687
:10110B008F3712122E750BFF750C12750D8F853BD9
:10111B0011853A1085390F85380E7B007A007922BC
:10112B0012085C7BFF7A12799312135A7B007A00B8
:0F113B0079221212BEE4F544F534F5350210B4F2
:10135A008B088A09890A12133CAB08AA09A90A123E
:07136A0012BE7FC00213BA9E
:10122E00E544B42B0BE5332537FFE5323536800F19
:10123E00E544B42D0DC3E5339537FFE5329536FE03
:10124E008024E544B4580EAC36AD37AE32AF33120F
:10125E000E16EE8011E544B42F17AC36AD37AE3214
:10126E00AF33120E28EE3395E08F3B8E3AF539F5FB
:02127E00382214
:100B5C00C283D280D281D28220872E3087FD7B0047
:100B6C007A00793C121371C3EF9408EE94004003A1
:100B7C00020C02750BFF750C12750D9D7B007A0033
:100B8C00793C1211D67F37805A20862B3086FD7B1C
:100B9C00007A00793C121371C3EF9408EE94005064
:100BAC0055750BFF750C12750D9F7B007A00793C07
:100BBC001211D67F38802C20852E3085FD7B007A53
:100BCC0000793C121371C3EF9408EE940050277512
:100BDC000BFF750C12750DA17B007A00793C12117C
:100BEC00D67F391213C4800E20840B3084FD7F2FE6
:100BFC001213C475442FC282D280D281D283208733
:100C0C002E3087FD7B007A00793C121371C3EF9470
:100C1C0008EE94004003020CA8750BFF750C1275BE
:100C2C000DA37B007A00793C1211D67F34805A20B8
:100C3C00862B3086FD7B007A00793C121371C3EF52
:100C4C009408EE94005055750BFF750C12750DA59C
:100C5C007B007A00793C1211D67F35802C20852EB2
:100C6C003085FD7B007A00793C121371C3EF940838
:100C7C00EE94005027750BFF750C12750DA77B00B9
:100C8C007A00793C1211D67F361213C4800E208460
:100C9C000B3084FD7F581213C4754458C281D28026
:100CAC00D283D28220872E3087FD7B007A00793C5C
:100CBC00121371C3EF9408EE94004003020D4E75AD
:100CCC000BFF750C12750DA97B007A00793C121183
:100CDC00D67F31805A20862B3086FD7B007A0079B6
:100CEC003C121371C3EF9408EE94005055750BFF32
:100CFC00750C12750DAB7B007A00793C1211D67F06
:100D0C0032802C20852E3085FD7B007A00793C12B8
:100D1C001371C3EF9408EE94005027750BFF750CFC
:100D2C0012750DAD7B007A00793C1211D67F33120F
:100D3C0013C4800E20840B3084FD7F2D1213C475D8
:100D4C00442DC280D283D281D2822087403087FD4D
:100D5C00E4F544783C7C00FD7BFF7A12798E120F0F
:100D6C002AE4F532F533F536F537F53BF53AF53936
:100D7C00F538F534F53578227C00FD7BFF7A127955
:100D8C008E120F2A7BFF7A1279AF02135A20862C0F
:100D9C003086FD7B007A00793C121371C3EF940806
:100DAC00EE94005037750BFF750C12750DBC7B0063
:100DBC007A00793C1211D67F300213C420850F3093
:100DCC0085FD7F3D1213C4753400753501222084D6
:0D0DDC000B3084FD7F2B1213C475442B22B5
:0300000002114AA0
:0C114A00787FE4F6D8FD75814402119115
:100DE900BB010CE58229F582E5833AF583E02250BF
:100DF90006E92582F8E622BBFE06E92582F8E22209
:0D0E0900E58229F582E5833AF583E4932222
:100E1600EF8DF0A4A8F0CF8CF0A428CE8DF0A42EF0
:020E2600FE22AA
:100E2800C2D5EC30E709B2D5E4C39DFDE49CFCEEE5
:100E380030E715B2D5E4C39FFFE49EFE120F72C3DC
:100E4800E49DFDE49CFC8003120F7230D507C3E4D7
:060E58009FFFE49EFE2254
:10080000E517240BF8E60517227808300702780B65
:10081000E475F001120FC7020F472000EB7F2ED2C4
:10082000008018EF540F2490D43440D4FF30040BD0
:10083000EF24BFB41A0050032461FFE518600215CD
:1008400018051BE51B7002051A30070D7808E475C2
:10085000F001120FC7EF020F600213157403D207E5
:100860008003E4C207F5178B088A09890AE4F518A2
:10087000F51AF51BE51860077F2012083B80F57517
:1008800019FFC201C200C202C203C205C206C208E9
:10089000120809FF700D3007057F0012084CAF1BCE
:1008A000AE1A22B4255FC2D5C204120809FF24D0B3
:1008B000B40A00501A75F00A781830D50508B6FF4A
:1008C0000106C6A426F620D5047002D20380D924DE
:1008D000CFB41A00EF5004C2E5D204020A4CD20190
:1008E00080C6D20080C0D20280BCD2D580BAD205E8
:1008F00080B47F2012083B2002077401B518004025
:10090000F1120800FF12083B020874D208D20680D8
:1009100095120800FB120800FA120800F94A4B7001
:1009200006791D7A0B7BFF20022EE518602A7E00D7
:100930008E82758300120DE960060EEE651970F067
:10094000C2D5EBC0E0EAC0E0E9C0E0EE120A93D005
:10095000E0F9D0E0FAD0E0FB120F47FF60AAEBC04D
:10096000E0EAC0E0E9C0E012083BD0E02401F9D0A1
:10097000E03400FAD0E0FBE5190460DCD519D98039
:10098000877BFF7A0A798FD202809C791080027966
:1009900008C206C2088008D2D5790A8004790AC242
:1009A000D5E519047002F519E4FAFDFEFF120800FE
:1009B000FC7B08200113120800FD7B1030000A1296
:1009C0000800FE120800FF7B20EC3382D592D55040
:1009D00013C3E43000069FFFE49EFEE42001039D64
:1009E000FDE49CFCE4CBF8C201EC700CCFCECDCC86
:1009F000E824F8F870F38017C3EF33FFEE33FEED11
:100A000033FDEC33FCEB33FB994002FB0FD8E9EBF1
:100A1000300105F8D0E0C448B201C0E00AEC4D4E08
:100A20004F78207B0070C2EAB5190040BCC0E012CC
:100A30000A95D0F0D0E0200104C4C0E0C4B201C0E7
:100A4000F0120824D0F0D5F0EB020874120FD70989
:100A50001153098B5808E24C08DE42098F4F099761
:0F0A60004409974908F743099D550981460981C3
:100A6F00450981470B3D5008E62D08EA2E090D2B4D
:100A7F0008EE23090B200B262A08A64800000905BB
:100A8F003F3F3F00790AA2D5200314300509B91062
:100A9F00020404B9080104A2D52006025001042063
:100AAF0002689202B518005034C0E07F203003195D
:100ABF007F30A20272067205500F120AECC202C2F8
:100ACF0006C205C2087F30800F300503E9C0E0126F
:100ADF00083B300503D0E0F9D0E0B518CC3005174E
:100AEF007F30B9100C12083B7F583004077F788095
:100AFF0003B9080312083B3002057F2D02083B7F24
:100B0F00202008F87F2B2006F322920280CF286E38
:100B1F00756C6C2900D2011208003001F8C20178FF
:100B2F001830D50108F60208A62D5043495812086F
:100B3F00002403B405004001E4900B389312082CF5
:0D0B4F00743A12082CD20375180402098BA9
:1011D6008B088A09890A8B0E8A0F8910AB08050AC3
:1011E600E50AAA097002050914F9120F4770ED7491
:1011F600FF250AF50A74FF3509F509AB0B050DE560
:101206000DAA0C7002050C14F9120F47FFAB080566
:101216000AE50AAA097002050914F9EF120F6070AF
:08122600DAAB0EAA0FA9102299
:100E5E00E709F60870FA8046E709F20870FA803E54
:100E6E0088828C83E709F0A370FA807EE309F60886
:100E7E0070FA8076E309F20870FA806E88828C83AD
:100E8E00E309F0A370FA806289828A83E0A3F608F0
:100E9E0070FA805689828A83E0A3F20870FA804A3B
:100EAE0080D280FA80C680D4806580F28031801036
:100EBE0080A680EA809A80A880DA80E280CA80319B
:100ECE0089828A83ECFAE493A3C8C582C8CCC58311
:100EDE00CCF0A3C8C582C8CCC583CC70E9800D897F
:100EEE00828A83E493A3F60870F9ECFAA9F0EDFB7D
:100EFE002289828A83ECFAE0A3C8C582C8CCC58356
:100F0E00CCF0A3C8C582C8CCC583CC70EA80DD897D
:100F1E00828A83E493A3F20870F980CE88F0ED24E0
:100F2E0002B4040050C4F582EB2402B4040050BA9B
:090F3E002323458223900EAE73BB
:10137100E4FFFE120F47600C0FEF70010E09E970D8
:05138100F20A80EF22DA
:100FFD008B088A09890AAB08AA09A90A120F47FFAB
:10100D00121386500D7401250AF50AE43509F50908
:10101D0080E4D200AB08AA09A90A120F47FF642B7E
:10102D006004EFB42D1BAB08050AE50AAA0970028E
:10103D00050914F9120F47642D6003D38001C39283
:10104D0000E4F50BF50CAB08AA09A90A120F47FF2E
:10105D001213AB5036AB08AA09A90A120F47FF337A
:10106D0095E0FEEF24D0FBEE34FFFAAE0BAF0C7C17
:10107D00007D0A120E16EF2BF50CEE3AF50B7401EE
:10108D00250AF50AE43509F50980BB300006AE0BDB
:0E109D00AF0C8009C3E4950CFFE4950BFE2216
:101156000210ABE493A3F8E493A34003F68001F2F4
:1011660008DFF48029E493A3F85407240CC8C3339A
:10117600C4540F4420C8834004F456800146F6DF69
:10118600E4800B0102040810204080901399E47E4D
:10119600019360BCA3FF543F30E509541FFEE4935E
:1011A600A360010ECF54C025E060A840B8E493A325
:1011B600FAE493A3F8E493A3C8C582C8CAC583CA50
:1011C600F0A3C8C582C8CAC583CADFE9DEE780BE08
:0113AA000042
:100F4700BB010689828A83E0225002E722BBFE02A8
:090F5700E32289828A83E49322DB
:100F6000BB010689828A83F0225002F722BBFE0170
:020F7000F3226A
:100F7200BC000BBE0029EF8DF084FFADF022E4CC63
:100F8200F875F008EF2FFFEE33FEEC33FCEE9DEC2C
:100F9200984005FCEE9DFE0FD5F0E9E4CEFD22ED72
:100FA200F8F5F0EE8420D21CFEADF075F008EF2FBC
:100FB200FFED33FD4007985006D5F0F222C398FDAD
:050FC2000FD5F0EA224A
:100FC700FAE6FB0808E6F925F0F618E6CA3AF6222B
:100FD700D083D082F8E4937012740193700DA3A3A9
:100FE70093F8740193F5828883E4737402936860BD
:060FF700EFA3A3A380DFBD
:10131500EFB40A07740D121320740A309811A899B6
:10132500B8130CC2983098FDA899C298B811F63038
:0713350099FDC299F5992210
:0F13AB00EFC394304007EF943A50028001C32201
:10138600EFC394094005EF940E4003BF2003D380BA
:0313960001C3226E
:00000001FF
